:100000000C9436000C945E000C945E000C945E0020
:100010000C945E000C945E000C945E000C945E00E8
:100020000C945E000C945E000C945E000C945E00D8
:100030000C945E000C945E000C945E000C945E00C8
:100040000C94AD030C945E000C947B030C9455034C
:100050000C945E000C945E000C945E000C945E00A8
:100060000C945E000C945E00F703920611241FBEF0
:10007000CFEFD8E0DEBFCDBF22E0AEE4B1E001C0FB
:100080001D92AD39B207E1F711E0A0E0B1E0EEE07A
:10009000F5E102C005900D92AE34B107D9F710E03A
:1000A000C5E3D0E004C02197FE010E946908C43373
:1000B000D107C9F70E948D040C947A0A0C940000B1
:1000C000ECEAF1E0A089B18982E08C93A485B58542
:1000D0001C92A685B7858FEC8C93108EA489B58968
:1000E00086E08C93A289B3898C9180618C93A289DC
:1000F000B3898C9188608C93A289B3898C91806834
:100100008C930288F389E02D80818F7D8083089510
:100110000895CF92DF92EF92FF920F931F93CF93A8
:10012000DF936C017A018B01C0E0D0E0CE15DF05D2
:1001300081F0D8016D918D01D601ED91FC91019076
:10014000F081E02DC6010995892B11F02196EECFA3
:100150007E01C701DF91CF911F910F91FF90EF902A
:10016000DF90CF90089580E090E00895FC01538DDA
:10017000448D252F30E0842F90E0821B930B541781
:1001800010F0CF96089501970895FC01918D828D0E
:10019000981761F0828DDF01A80FB11D5D968C91DB
:1001A000928D9F5F9F73928F90E008958FEF9FEFE6
:1001B0000895FC01918D828D981731F0828DE80FA2
:1001C000F11D858D90E008958FEF9FEF0895FC015C
:1001D000918D228D892F90E0805C9F4F821B910929
:1001E0008F73992708958CEA91E00E94E70021E03F
:1001F000892B09F420E0822F0895FC01848DDF0112
:10020000A80FB11DA35ABF4F2C91848D90E0019689
:100210008F739927848FA689B7892C93A089B18978
:100220008C91837080648C93938D848D981306C019
:100230000288F389E02D80818F7D80830895EF927D
:10024000FF920F931F93CF93DF93EC0181E0888F90
:100250009B8D8C8D981305C0E889F989808185FD77
:1002600026C0F62E0B8D10E00F5F1F4F0F73112766
:10027000E02E8C8DE8120CC00FB607FCFACFE8898F
:10028000F989808185FFF5CFCE010E94FD00F1CF75
:100290008B8DFE01E80FF11DE35AFF4FF0829FB7EF
:1002A000F8940B8FEA89FB89808180620AC09FB72E
:1002B000F894EE89FF896083E889F98980818370E9
:1002C000806480839FBF81E090E0DF91CF911F9198
:1002D0000F91FF90EF900895CF93DF93EC01888DFD
:1002E0008823C9F0EA89FB89808185FD05C0A8893A
:1002F000B9898C9186FD0FC00FB607FCF5CF8081C0
:1003000085FFF2CFA889B9898C9185FFEDCFCE0109
:100310000E94FD00E7CFDF91CF9108953FB7F89499
:100320008091530190915401A0915501B0915601D3
:1003300026B5A89B05C02F3F19F00196A11DB11D40
:100340003FBFBA2FA92F982F8827820F911DA11D7B
:10035000B11DBC01CD0142E0660F771F881F991FB8
:100360004A95D1F708952FB7F89460914F01709195
:10037000500180915101909152012FBF08950F9328
:100380001F930E94B3016093B4017093B5018093F1
:10039000B6019093B7018CEA91E00E94C50097FFE7
:1003A0001FC00E94B3010091B4011091B5012091CA
:1003B000B6013091B701DC01CB01801B910BA20B80
:1003C000B30B0091B0011091B1012091B2013091B5
:1003D000B30180179107A207B307E8F28FEF9FEFF1
:1003E0001F910F9108956115710551F0FB01019066
:1003F0000020E9F73197AF01461B570B0C94890099
:1004000080E090E008958F929F92AF92BF92EF921A
:10041000FF920F931F93CF93DF93CDB7DEB7A197D2
:100420000FB6F894DEBF0FBECDBF7C01FA01CB0141
:1004300019A2223008F42AE08E010F5D1F4F822E90
:10044000912CA12CB12CBF01A50194010E94F607AB
:10045000F901CA01015011096A3014F4605D01C04C
:10046000695CD8016C93232B242B252B61F7B801F1
:10047000C7010E94F301A1960FB6F894DEBF0FBE2C
:10048000CDBFDF91CF911F910F91FF90EF90BF9063
:10049000AF909F908F900895CF92DF92EF92FF924E
:1004A000CF93DF936C01990FEE08FF08F7FE15C09C
:1004B0006DE28CEA91E00E941F01EC014427552770
:1004C000BA014C195D096E097F092AE08CEA91E0B6
:1004D0000E940302C80FD91F08C02AE0B701A60175
:1004E0008CEA91E00E940302EC0168E171E08CEA81
:1004F00091E00E94F3018C0F9D1FDF91CF91FF903F
:10050000EF90DF90CF9008950F931F93CF93DF93D9
:10051000EC0188819981009729F02A813B81261777
:10052000370788F48B016F5F7F4F0E949009009717
:1005300061F0998388831B830A832C813D81232B5F
:1005400011F4FC01108281E001C080E0DF91CF91C5
:100550001F910F910895FF920F931F93CF93DF93F5
:10056000CDB7DEB728970FB6F894DEBF0FBECDBF6C
:10057000FF24F3948CEA91E00E94E700892B09F4B0
:1005800080C01A8219821C821B821E821D8260E03A
:1005900070E0CE0101960E94840229813A81811186
:1005A0000DC02115310519F0C9010E9407091A82F1
:1005B00019821E821D821C821B8207C01E821D8220
:1005C0006AE171E0C9010E94640A0E94BF0197FDBF
:1005D0001EC08A309105D9F08F8318860D811E8147
:1005E0000F5F1F4FB801CE0101960E94840288233D
:1005F00061F329813A818D819E81BE01695F7F4FC0
:10060000820F931F0E94640A1E830D83DECF8091A8
:100610008F0290919002009739F069817A8161157B
:100620007105E9F40E94070989819A8190939002EB
:1006300080938F028B819C81909392028093910290
:100640008D819E8190939402809393021A821982E5
:1006500089819A810E940709F092A7018BCF40916E
:100660009102509192022D813E8142175307D0F2A0
:100670000E94640A8D819E819093940280939302DC
:10068000E7CF28960FB6F894DEBF0FBECDBFDF913F
:10069000CF911F910F91FF9008950E94F300811157
:1006A0000C94AB0208950E94560A1F920F920FB647
:1006B0000F9211242F933F934F935F936F937F93E8
:1006C0008F939F93AF93BF93EF93FF938CEA91E047
:1006D0000E94FD00FF91EF91BF91AF919F918F918B
:1006E0007F916F915F914F913F912F910F900FBE2E
:1006F0000F901F9018951F920F920FB60F92112412
:100700002F938F939F93EF93FF93E091BC01F09110
:10071000BD018081E091C201F091C30182FD12C050
:1007200090818091C5018F5F8F732091C6018217E0
:1007300051F0E091C501F0E0E455FE4F958F8093B4
:10074000C50101C08081FF91EF919F918F912F9101
:100750000F900FBE0F901F9018951F920F920FB61B
:100760000F9211242F933F938F939F93AF93BF9337
:1007700080914F0190915001A0915101B09152018F
:1007800030914E0123E0230F2D3720F40196A11D57
:10079000B11D05C026E8230F0296A11DB11D2093AF
:1007A0004E0180934F0190935001A0935101B0935B
:1007B00052018091530190915401A0915501B09143
:1007C00056010196A11DB11D8093530190935401D0
:1007D000A0935501B0935601BF91AF919F918F9116
:1007E0003F912F910F900FBE0F901F901895109270
:1007F000AF011092AE0188EE93E0A0E0B0E08093EC
:10080000B0019093B101A093B201B093B3018AE01B
:1008100091E09093AD018093AC0185EC90E09093D2
:10082000B9018093B80184EC90E09093BB01809370
:10083000BA0180EC90E09093BD018093BC0181EC03
:1008400090E09093BF018093BE0182EC90E0909382
:10085000C1018093C00186EC90E09093C301809326
:10086000C2011092C5011092C6011092C7011092E8
:10087000C80110924F021092500210925102109231
:10088000520210925302109254021092550210928A
:10089000560210925702109258021092590210926A
:1008A0005A0210925B0210925C0210925D0210924A
:1008B0005E021092900210928F0210929202109299
:1008C0009102109294021092930260E070E08FE81F
:1008D00092E00E94840220918F0230919002811157
:1008E00013C02115310519F0C9010E9407091092A2
:1008F000900210928F021092940210929302109222
:100900009202109291020895109294021092930212
:100910006AE171E0C9010C94640A789484B582603C
:1009200084BD84B5816084BD85B5826085BD85B593
:10093000816085BD80916E00816080936E00109211
:10094000810080918100826080938100809181008C
:10095000816080938100809180008160809380001D
:100960008091B10084608093B1008091B00081607B
:100970008093B00080917A00846080937A008091A7
:100980007A00826080937A0080917A0081608093FF
:100990007A0080917A00806880937A001092C1007A
:1009A00010928B0210928C0210928D0210928E0285
:1009B00010924B0210924C0210924D0210924E0275
:1009C0000E94B3016B017C014B015C0128EB820E9C
:1009D0002BE0921EA11CB11C0E94B3016C157D0579
:1009E0008E059F0528F086169706A806B906A0F77B
:1009F0000E948E014B015C0198EEC92E93E0D92E26
:100A0000E12CF12C0E948E01DC01CB01881999099F
:100A1000AA09BB09883E9340A105B10598F381E07E
:100A2000C81AD108E108F108E8EE8E0EE3E09E1E38
:100A3000A11CB11CC114D104E104F10419F70E94F6
:100A400060006BE171E08CEA91E00E94F3010E948A
:100A5000B3016B017C014B015C012AE0820E911C09
:100A6000A11CB11C0E94B3016C157D058E059F056C
:100A700028F086169706A806B906A0F781E08093AD
:100A80005F020E94600068EC70E08FE892E00E94D4
:100A9000840284EFC82EDD24D394E12CF12C0E9433
:100AA000B301672B682B692B41F40E94B3016230BC
:100AB00071058105910508F4DCC00E94B301009125
:100AC000A8011091A9012091AA013091AB016017F2
:100AD00071078207930740F46093A8017093A901FE
:100AE0008093AA019093AB010091A8011091A901F4
:100AF0002091AA013091AB014B015C01801A910A4F
:100B0000A20AB30A950184010A3F110521053105A6
:100B100008F4AFC06093A8017093A9018093AA0163
:100B20009093AB01C0925702D0925802E0925902C2
:100B3000F0925A0210925B0210925C0210925D02D7
:100B400010925E0280914F0290915002A09151024A
:100B5000B09152028093530290935402A093550295
:100B6000B09356020E94B30160934F0270935002FB
:100B700080935102909352020E94B3014B015C0199
:100B80006CE271E08CEA91E00E94F3012AE041E01E
:100B900050E060E070E08CEA91E00E94030263E3C1
:100BA00071E08CEA91E00E94F3012AE0B501A40112
:100BB0008CEA91E00E94030265E371E08CEA91E027
:100BC0000E94F30180914F0290915002A091510236
:100BD000B0915202B501A401481B590B6A0B7B0B63
:100BE0002AE08CEA91E00E94030265E371E08CEA5E
:100BF00091E00E94F30140914F02509150026091A8
:100C00005102709152028091530290915402A0912E
:100C10005502B0915602481B590B6A0B7B0B2AE018
:100C20008CEA91E00E94030267E371E08CEA91E0B4
:100C30000E94F3010E94B301AB01BC012AE08CEADF
:100C400091E00E94030269E371E08CEA91E00E9466
:100C5000F30168E171E08CEA91E00E94F3010E94E7
:100C6000B30160934F0270935002809351029093AE
:100C700052028091A701882309F451C0C0919302C8
:100C8000D0919402209791F0CE0101978C179D0787
:100C900008F4EC0160918F0270919002AE0187E739
:100CA00091E00E946B0AC958DE4F188265E371E03B
:100CB00087E791E00E94B70707E511E05801C0E01F
:100CC000D0E0009791F040E150E060E070E00E94D9
:100CD0009806F501619371935F0165E371E080E02F
:100CE00090E00E94B7072196ECCF60E471E08CEAB7
:100CF00091E00E94F301CE010E944C02A12CB12C84
:100D0000CA15DB0551F0F801819191918F010E9484
:100D10004C02FFEFAF1ABF0AF3CF1092A7010E9457
:100D20004D03BDCE80918F02909190020C940709E3
:100D3000A0E0B0E0EEE9F6E00C9424085C016B0161
:100D40007A016115710519F0FB0191838083E1142B
:100D5000F10429F0C7010297839708F0E5C0E50187
:100D60002196F5011081812F90E00E94AE07892B1A
:100D700011F05E01F4CF1D3229F42196F5011181A5
:100D800001E007C01B3221F4E5012296F501118133
:100D900000E0E114F10409F1F0E1EF16F10429F4A7
:100DA0003FC010E3E114F10421F128E0E216F10460
:100DB00001F154F4E2E0EE16F10421F5812C912CBE
:100DC000A12CB0E4BB2E3EC0FAE0EF16F10439F0DE
:100DD00020E1E216F104B1F430C0103319F1FAE069
:100DE000EF2EF12CACEC8A2E982CA82CACE0BA2E6D
:100DF00029C078E0E72EF12C812C912CA12CE0E188
:100E0000BE2E20C060E070E080E090E897010F2CDB
:100E1000000C440B550B0E94F60749015A0112C001
:100E2000103359F488818F7D883509F0BACF198144
:100E30002296026080E1E82EF12C812C912CA12CCD
:100E400068E0B62E40E060E070E0CB0127010F2C97
:100E5000000C66087708FE0150ED352E310E29E0B2
:100E6000231570F42FEB210F2A3118F439EC332EAF
:100E700006C02FE9210F2A3118F529EA322E310E4A
:100E8000232D30E02E153F05DCF447FD16C08616F5
:100E90009706A806B90670F0A30192010E94E60722
:100EA000630D711D811D911D61307105810520E863
:100EB000920710F04FEF01C041E021961081CBCF97
:100EC000202F2170C114D10471F0442329F02197FF
:100ED000F601D183C08307C001FF19C02297F60134
:100EE000D183C08314C047FF12C0222329F060E0E1
:100EF00070E080E090E804C06FEF7FEF8FEF9FE736
:100F000022E230E0309398022093970209C0222316
:100F100081F090958095709561957F4F8F4F9F4F91
:100F2000462F372F282F12C040E030E020E090E01D
:100F30000DC097FFF5CF82E290E0909398028093E6
:100F400097026FEF7FEF8FEF9FE7EACF642F732F4A
:100F5000822FCDB7DEB7E1E10C94400891110C94DB
:100F6000E307803219F089508550C8F7089545E9A4
:100F700052E00E94BC070895FA01A191B081009748
:100F800019F41097E1F0CD01DC01CD010D900020A6
:100F900011F4C00113C0FB012191222319F0201587
:100FA000D9F7F3CFFB012191201519F41E92119668
:100FB00006C02223C1F70D900020A1F7D001FA014D
:100FC000A193B0830895992788270895DB018F9313
:100FD0009F930E941808BF91AF91A29F800D911D11
:100FE000A39F900DB29F900D11240895A1E21A2E97
:100FF000AA1BBB1BFD010DC0AA1FBB1FEE1FFF1FBD
:10100000A217B307E407F50720F0A21BB30BE40B0C
:10101000F50B661F771F881F991F1A9469F7609553
:101020007095809590959B01AC01BD01CF0108950D
:101030000E945A08A59F900DB49F900DA49F800D0B
:10104000911D112408952F923F924F925F926F92BB
:101050007F928F929F92AF92BF92CF92DF92EF9248
:10106000FF920F931F93CF93DF93CDB7DEB7CA1BC9
:10107000DB0B0FB6F894DEBF0FBECDBF09942A88F4
:10108000398848885F846E847D848C849B84AA849C
:10109000B984C884DF80EE80FD800C811B81AA8129
:1010A000B981CE0FD11D0FB6F894DEBF0FBECDBFF4
:1010B000ED010895A29FB001B39FC001A39F700DE1
:1010C000811D1124911DB29F700D811D1124911D50
:1010D0000895EE0FFF1F0590F491E02D09940F93F2
:1010E0001F93CF93DF938230910510F482E090E05C
:1010F000E0919B02F0919C0220E030E0A0E0B0E0A3
:10110000309719F1408151810281138148175907A5
:10111000C8F08417950769F4109731F012960C9374
:10112000129713961C9327C000939B0210939C0266
:1011300022C02115310519F04217530718F49A01FE
:10114000BD01EF01DF01F801DBCF21153105F9F019
:10115000281B390B2430310580F48A819B8161156D
:10116000710521F0FB019383828304C090939C025C
:1011700080939B02FE01329644C0FE01E20FF31FF2
:101180008193919322503109398328833AC0209169
:10119000990230919A02232B41F42091020130915F
:1011A000030130939A02209399022091000130911B
:1011B00001012115310541F42DB73EB740910401DD
:1011C00050910501241B350BE0919902F0919A0290
:1011D000E217F307A0F42E1B3F0B2817390778F00E
:1011E000AC014E5F5F4F2417350748F04E0F5F1F6D
:1011F00050939A02409399028193919302C0E0E048
:10120000F0E0CF01DF91CF911F910F910895CF931F
:10121000DF93009709F481C0FC0132971382128298
:10122000A0919B02B0919C02109781F420813181A2
:10123000820F931F2091990230919A022817390743
:1012400051F5F0939A02E093990267C0ED0120E016
:1012500030E0CE17DF0740F44A815B819E014115E3
:101260005105F1F0EA01F5CFD383C283408151816A
:10127000840F951FC817D90759F488819981840F65
:10128000951F0296918380838A819B8193838283B9
:101290002115310529F4F0939C02E0939B023DC097
:1012A000E901FB83EA8349915991C40FD51FEC17DB
:1012B000FD0761F480819181840F951F0296E901F9
:1012C00099838883828193819B838A83E0E0F0E025
:1012D00012968D919C911397009719F0FD01DC01F6
:1012E000F7CF8D919C9111979D012E5F3F4F820FFB
:1012F000931F2091990230919A022817390769F4B7
:10130000309729F410929C0210929B0202C0138223
:101310001282B0939A02A0939902DF91CF9108951F
:10132000A0E0B0E0E6E9F9E00C942708EC010097B2
:1013300021F4CB010E946F08B4C0FC01E60FF71F37
:101340009C0122503109E217F30708F4A8C0D90123
:101350000D911C91119706171707B0F00530110574
:1013600008F49BC0C80104978617970708F495C036
:1013700002501109061B170B019311936D937C9377
:10138000CF010E94070989C05B01A01AB10A4C0174
:10139000800E911EA0919B02B0919C02612C712C39
:1013A000E12CF12C109709F446C08D919C91119776
:1013B000A815B905B1F56C0142E0C40ED11CCA14E0
:1013C000DB0478F14C018A189B08640142E0C40EEA
:1013D000D11C1296BC9012971396AC91B5E0CB1627
:1013E000D10440F0B282A38391828082D9016D93AF
:1013F0007C9309C00E5F1F4F800F911FF9019183ED
:101400008083EB2DFA2FE114F10431F0D70113960C
:10141000FC93EE93129741C0F0939C02E0939B02E1
:101420003CC06816790608F43C017D0112960D90C7
:10143000BC91A02DB7CF8091990290919A02881605
:101440009906E1F466167706C8F480910001909140
:101450000101009741F48DB79EB74091040150916E
:101460000501841B950BE817F907C8F4F0939A025D
:10147000E0939902F901718360830FC0CB010E9450
:101480006F087C01009759F0A801BE010E945B0A19
:10149000CE010E940709C70104C0CE0102C080E04E
:1014A00090E0CDB7DEB7EEE00C94430881E090E029
:1014B000F8940C947A0AFB01DC0102C001900D92B1
:1014C00041505040D8F70895FB01DC0101900D9286
:1014D0000020E1F70895FB01DC014150504048F045
:1014E00001900D920020C9F701C01D92415050405B
:1014F000E0F7089510E0C5E3D0E004C0FE010E94CB
:0E15000069082196C633D107C9F7F894FFCFCA
:10150E0000009D028000000000001F018900B6004F
:10151E006C01E700C500D9000D0A00564D44505627
:10152E005F317C315F564D4450560A00564D445043
:10153E00455F003A323A007C005F564D44504500FC
:0E154E004974656D20436F756E74203D20005A
:107E0000112484B714BE81FFF0D085E080938100F7
:107E100082E08093C00088E18093C10086E0809377
:107E2000C20080E18093C4008EE0C9D0259A86E02C
:107E300020E33CEF91E0309385002093840096BBD3
:107E4000B09BFECF1D9AA8958150A9F7CC24DD24C4
:107E500088248394B5E0AB2EA1E19A2EF3E0BF2EE7
:107E6000A2D0813461F49FD0082FAFD0023811F036
:107E7000013811F484E001C083E08DD089C08234E0
:107E800011F484E103C0853419F485E0A6D080C0E4
:107E9000853579F488D0E82EFF2485D0082F10E0AE
:107EA000102F00270E291F29000F111F8ED06801E7
:107EB0006FC0863521F484E090D080E0DECF843638
:107EC00009F040C070D06FD0082F6DD080E0C81688
:107ED00080E7D80618F4F601B7BEE895C0E0D1E017
:107EE00062D089930C17E1F7F0E0CF16F0E7DF06D8
:107EF00018F0F601B7BEE89568D007B600FCFDCFD4
:107F0000A601A0E0B1E02C9130E011968C91119780
:107F100090E0982F8827822B932B1296FA010C0160
:107F200087BEE89511244E5F5F4FF1E0A038BF0790
:107F300051F7F601A7BEE89507B600FCFDCF97BE46
:107F4000E89526C08437B1F42ED02DD0F82E2BD052
:107F50003CD0F601EF2C8F010F5F1F4F84911BD097
:107F6000EA94F801C1F70894C11CD11CFA94CF0C13
:107F7000D11C0EC0853739F428D08EE10CD085E9AC
:107F80000AD08FE07ACF813511F488E018D01DD067
:107F900080E101D065CF982F8091C00085FFFCCF94
:107FA0009093C60008958091C00087FFFCCF809118
:107FB000C00084FD01C0A8958091C6000895E0E648
:107FC000F0E098E1908380830895EDDF803219F02E
:107FD00088E0F5DFFFCF84E1DECF1F93182FE3DFCA
:107FE0001150E9F7F2DF1F91089580E0E8DFEE27F6
:047FF000FF270994CA
:027FFE00040479
:0400000300007E007B
:00000001FF